:100000000C942A000C9447000C9447000C94470071
:100010000C9447000C9447000C9447000C94470044
:100020000C9447000C9447000C9478020C94470001
:100030000C9447000C9447000C9447000C94470024
:100040000C9447000C9447000C9447000C94470014
:100050000C94470011241FBECFE5D8E0DEBFCDBF12
:1000600010E0A0E6B0E0E8E2F8E002C005900D92F2
:10007000AC37B107D9F720E0ACE7B0E001C01D9282
:10008000A23DB207E1F70E94E3030C9412040C9422
:100090000000CF93DF9300D000D0CDB7DEB71A8237
:1000A00019826CC089819A81880F991F9C01220F47
:1000B000331F220F331F820F931F8E579F4FFC0158
:1000C00080819181009709F054C089819A81880FBD
:1000D000991F9C01220F331F220F331F820F931F82
:1000E00088579F4FFC011182108289819A81880F65
:1000F000991F9C01220F331F220F331F820F931F62
:100100008C579F4F2FEF3FEFFC0131832083898174
:100110009A81880F991F9C01220F331F220F331FD2
:10012000820F931F8A579F4FFC0111821082898191
:100130009A81880F991F9C01220F331F220F331FB2
:10014000820F931F8E579F4FFC011182108289816D
:100150009A81880F991F9C01220F331F220F331F92
:10016000820F931F86579F4F2FEF3FEFFC01318384
:10017000208389819A8101969A83898389819A81D2
:10018000883091050CF48ECF1C821B828B819C8160
:10019000880F991F9C01220F331F220F331F820FDC
:1001A000931F8A579F4FFC01808191811816190671
:1001B0000CF056C08091600090916100009729F08A
:1001C000F89410926100109260008B819C81880FDE
:1001D000991F9C01220F331F220F331F820F931F81
:1001E0008A579F4FFC01808191819C0121503109E8
:1001F0008B819C81880F991FAC01440F551F440FC0
:10020000551F840F951F8A579F4FFC013183208310
:100210008B819C81880F991F9C01220F331F220F15
:10022000331F820F931F8E579F4FFC012081318116
:100230008B819C81880F991FAC01440F551F440F7F
:10024000551F840F951F88579F4FFC018081918116
:10025000F90109958B819C8101969C838B831CC03D
:100260008B819C8101968830910534F48B819C812F
:1002700001969C838B8310C08091600090916100F7
:10028000009739F481E090E09093610080936000E2
:1002900078941C821B827ACF79CFCF93DF9300D0E2
:1002A000CDB7DEB71A82198270C089819A81880F12
:1002B000991F9C01220F331F220F331F820F931FA0
:1002C00086579F4FFC01808191810097B1F589810C
:1002D0009A81880F991F9C01220F331F220F331F11
:1002E000820F931F8A579F4F21E030E0FC0131833A
:1002F000208389819A81880F991F9C01220F331FC7
:10030000220F331F820F931F8C579F4FFC01808158
:1003100091819C012150310989819A81880F991F0F
:10032000AC01440F551F440F551F840F951F86576E
:100330009F4FFC013183208323C089819A81880FDC
:10034000991F9C01220F331F220F331F820F931F0F
:1003500086579F4FFC01808191819C01215031097A
:1003600089819A81880F991FAC01440F551F440F52
:10037000551F840F951F86579F4FFC0131832083A3
:1003800089819A8101969A83898389819A818830AB
:1003900091050CF48ACF0F900F90DF91CF910895C3
:1003A000CF93DF93CDB7DEB728970FB6F894DEBFB3
:1003B0000FBECDBF9A8389837C836B835E834D831D
:1003C00038872F8389819A810197880F991F9C0113
:1003D000220F331F220F331F820F931F8C579F4F03
:1003E0002B813C81FC013183208389819A81019793
:1003F000880F991F9C01220F331F220F331F820F7A
:10040000931F8E579F4F2D813E81FC0131832083A6
:1004100089819A810197880F991F9C01220F331FB0
:10042000220F331F820F931F88579F4F2F813885CC
:10043000FC013183208389819A810197880F991F5C
:100440009C01220F331F220F331F820F931F8657E9
:100450009F4F2B813C81FC013183208389819A81CC
:100460000197880F991F9C01220F331F220F331F02
:10047000820F931F8A579F4FFC011182108228968A
:100480000FB6F894DEBF0FBECDBFDF91CF910895B8
:10049000CF93DF93CDB7DEB783E590E023E530E07F
:1004A000F90120812B62FC0120838CE590E02AEF8A
:1004B000FC01208389E590E029E530E0F901208105
:1004C0002260FC0120838AE390E0FC0180818AE3C2
:1004D00090E02FEFFC01208381E390E0FC0180811C
:1004E00081E390E02FEFFC012083DF91CF9108950D
:1004F0001F920F9200905F000F9211242F933F9351
:100500004F935F936F937F938F939F93AF93BF931B
:10051000EF93FF93CF93DF93CDB7DEB70E944D01EA
:10052000DF91CF91FF91EF91BF91AF919F918F910B
:100530007F916F915F914F913F912F910F9000921A
:100540005F000F901F901895CF93DF9300D0CDB729
:10055000DEB79A83898381E390E02FEFFC0120834B
:1005600082E390E02FEFFC01208380917C0090914A
:100570007D000097A9F48BE390E020917E003091FC
:100580007F00220F331F2E593F4FF9012081318107
:10059000FC01208382E390E027EFFC0120835BC015
:1005A00080917C0090917D0081309105E9F48BE38E
:1005B00090E02091800030918100220F331F2E594E
:1005C0003F4FF90120813181422F20917A003091F3
:1005D0007B00F42FF21B2F2FFC01208382E390E09D
:1005E0002BEFFC01208337C080917C0090917D002F
:1005F00082309105A9F48BE390E020917600309150
:100600007700220F331F2E593F4FF901208131818E
:10061000FC01208382E390E02DEFFC0120831BC0CE
:1006200080917C0090917D0083309105A1F48BE353
:1006300090E02091780030917900220F331F2E59DD
:100640003F4FF90120813181FC01208382E390E05A
:100650002EEFFC01208380917C0090917D0001961B
:1006600083709078992324F401978C6F9F6F019683
:1006700090937D0080937C000F900F90DF91CF913D
:100680000895CF93DF9300D0CDB7DEB79A838983E7
:1006900080917E0090917F0089309105B9F580911D
:1006A0008000909181008930910581F580917600DC
:1006B000909177008930910549F58091780090916B
:1006C00079008930910511F588EE93E090938F00C1
:1006D00080938E0088EE93E0909395008093940031
:1006E00081E090E0909379008093780010927700F9
:1006F00010927600109281001092800010927F007C
:1007000010927E0010927B0010927A0080917E0001
:1007100090917F0001968A30910554F480917E007B
:1007200090917F00019690937F0080937E0046C059
:1007300010927F0010927E00809180009091810045
:1007400001968A30910554F4809180009091810047
:100750000196909381008093800030C010928100B8
:1007600010928000809176009091770001968A30F7
:10077000910554F4809176009091770001969093C2
:100780007700809376001AC010927700109276005E
:10079000809178009091790001968A30910554F407
:1007A00080917800909179000196909379008093E0
:1007B000780004C010927900109278000F900F908A
:1007C000DF91CF910895CF93DF93CDB7DEB720E0CF
:1007D00030E044EA52E063E070E081E090E00E94A3
:1007E000D00120E030E041E453E064E670E082E0D4
:1007F00090E00E94D0010E944802789482E390E049
:100800002EEFFC0120838BE390E020916400309177
:100810006500FC0120830E94490080E090E0DF91A8
:08082000CF910895F894FFCF79
:100828000100C000F900A400B00099009200820005
:0C083800F800800090000900090080001A
:00000001FF
